:100000000A128A110F2F00308A000408840A82071E
:100010000034203420342034573465346C34633455
:100020006F346D34653420342034003420344C3443
:1000300049345634453420345734493452344534E5
:040040002034003434
:100E1E0083010A128A11992FF200720883120313AA
:100E2E0086000710871007150A128A1135270A1235
:100E3E008A118312031307110800F200720883123D
:100E4E00031386000714871007150A128A11352717
:100E5E000A128A118312031307110800F001F1011F
:100E6E0002307102593003197002031C3F2F402FBC
:100E7E00422F522F522F0130F0070318F10A003083
:100E8E00F10702307102593003197002031C502F02
:100E9E00512F422F522F0800F400662F7408840041
:100EAE000A128A1103200A128A110A128A112427A1
:100EBE000A128A110130F3007308F407662F7408C2
:100ECE0084000A128A1103200A128A110038031DA7
:100EDE00712F722F552F732F080038300A128A1176
:100EEE0013270A128A110E300A128A1113270A12B8
:100EFE008A1101300A128A1113270A128A1106303A
:100F0E000A128A1113270A128A110C300A128A1138
:100F1E0013270A128A1180300A128A1113270A1215
:100F2E008A11080083160313860187010A128A119B
:100F3E0074270A128A11A32F80300A128A111327DE
:100F4E000A128A1101300A128A1153270A128A11C3
:100F5E00C0300A128A1113270A128A110E300A1291
:100F6E008A1153270A128A11F501F601753076029D
:100F7E00303003197502031CC52FC62FC82FD82F6A
:100F8E00D82F0130F5070318F60A0030F607753032
:100F9E007602303003197502031CD62FD72FC82FB7
:100FAE00D82F01300A128A1113270A128A11F5015D
:100FBE00F6010B307602B83003197502031CE82FC8
:100FCE00E92FEB2FA32FA32F0130F5070318F60AF5
:100FDE000030F6070B307602B83003197502031C89
:100FEE00F92FFA2FEB2FA32FA32FA32F0A128A115B
:020FFE000028C9
:00000001FF
