:03000000020800F3
:0C080000787FE4F6D8FD75812C020847D3
:1009190004230E0D0B07041DE0D0B070100B077FE8
:0E0929006777666D7D7C065B4F395E3F7971A6
:1008EA00E4FDFCC3ED9FEE6480F8EC648098501E32
:1008FA00E4FBFAC3EB9DEC6480F8EA648098500745
:0E090A000BBB00010A80EC0DBD00010C80D576
:0109180022BC
:10088C0075B00FE4F527F52874232528F8E6B5B0E4
:10089C000885272B85282C800E0528E52870020555
:1008AC00276404452770E175B0F0E4F529F52A7446
:1008BC001D252AF8E6B5B008852921852A22800E47
:1008CC00052AE52A700205296404452970E1E52C06
:0E08DC0025E025E0240B2522F8E6F5A080A2F9
:10080C0002088CE493A3F8E493A34003F68001F26E
:10081C0008DFF48029E493A3F85407240CC8C333ED
:10082C00C4540F4420C8834004F456800146F6DFBC
:10083C00E4800B0102040810204080900919E47E2A
:10084C00019360BCA3FF543F30E509541FFEE493B1
:10085C00A360010ECF54C025E060A840B8E493A378
:10086C00FAE493A3F8E493A3C8C582C8CAC583CAA3
:10087C00F0A3C8C582C8CAC583CADFE9DEE780BE5B
:0109370000BF
:00000001FF
