:030000000208E50E
:0C08E500787FE4F6D8FD75810A02080057
:1008880020202057656C636F6D65202000204C493F
:0908980056452057495245200045
:10086A007F381208C97F0E1208C97F011208C97F92
:0E087A00061208C97F0C1208C97F800208C947
:0E08C9008FA0C290C291D2921208BAC292229F
:0E08D7008FA0D290C291D2921208BAC2922281
:100845008B088A09890AAB08AA09A90A1208A160B6
:1008550013050AE50A7002050914F91208A1FF1229
:0508650008D780E2222B
:0E08BA00E4FFFE0FBF00010EBE17F8BF71F580
:0108C800220D
:1008000012086A7F801208C97BFF7A08798812086B
:10081000457FC01208C97BFF7A087995120845E424
:10082000FFFE0FBF00010EBE75F8BF30F57F01124D
:1008300008C9E4FEFFC3EF9430EE947550C50FBFB6
:0508400000010E80F034
:1008A100BB010689828A83E0225002E722BBFE0255
:0908B100E32289828A83E4932288
:00000001FF
