:0300000002096C86
:0C096C00787FE4F6D8FD7581080209468A
:1009460012095F1208E31209848F087F017E0012E4
:09095600097CAF0812098F80ED45
:0D095F00E4F5807590F075A0FF75B0FF22E3
:1008E3007F987E3A12092E1209787F947E1112099D
:1008F3002E1209787F2C7E0112092E1209787F8A25
:100903007E0212092E7F387E0012097C7F067E004C
:1009130012097C7F0F7E0012097C7F017E00020991
:010923007C57
:040978007F307E004E
:08097C00C2B5120924C2B72222
:08098F00D2B5120924C2B722FF
:10080000C290D291D292D29320940912092A3094A4
:10081000FD7F612220950912092A3095FD7F622211
:1008200020960912092A3096FD7F6322209709122B
:10083000092A3097FD7F6422D290C291D292D2933E
:1008400020940912092A3094FD7F6522209509120F
:10085000092A3095FD7F662220960912092A3096D2
:10086000FD7F672220970912092A3097FD7F6822B1
:10087000D290D291C292D29320940912092A309434
:10088000FD7F692220950912092A3095FD7F6A2291
:1008900020960912092A3096FD7F6B2220970912B3
:1008A000092A3097FD7F6C22D290D291D292C293C6
:1008B00020940912092A3094FD7F6D222095091297
:1008C000092A3095FD7F6E2220960912092A30965A
:1008D000FD7F6F2220970912092A3097FD7F702231
:0308E0007F712203
:0A0984007F71BF710512080080F8B2
:01098E002246
:0A092400C2B68FA0D2B77F967E0006
:10092E00E4FDFCD3ED9FEE6480F8EC6480985007F4
:07093E000DBD00010C80EC6F
:01094500228F
:00000001FF
