:03000000020911E1
:0C091100787FE4F6D8FD75811B02080019
:1008C6003C3C53484F5720555220434152443E3EEC
:0108D6000021
:1008000012088F1208E67F801208F57BFF7A0879BC
:10081000C61208457FC01208F5E4F514F515120953
:100820001DAE1574082EF8A60774082EF8E6FF1200
:1008300009030515E51570020514C3940CE514941D
:050840000040DB80FE1A
:10088F007F381208F57F0E1208F57F011208F57FE9
:0E089F00061208F57F0C1208F57F800208F59E
:0E08F5008FA0C295C296D2971208D7C2972242
:0E0903008FA0D295C296D2971208D7C2972223
:100845008B198A1A891BAB19AA1AA91B1208AD6044
:1008550013051BE51B7002051A14F91208ADFF12EA
:05086500090380E222FE
:0E08D700E4FFFE0FBF00010EBE17F8BF71F563
:0108E50022F0
:0F08E600759850438920758BFD758DFDD28E223C
:08091D003098FDC298AF992249
:080925008F993099FDC299225F
:10086A008B168A178918AB16AA17A9181208AD6031
:10087A00130518E5187002051714F91208ADFF12CE
:05088A00092580E222B7
:1008AD00BB010689828A83E0225002E722BBFE0249
:0908BD00E32289828A83E493227C
:00000001FF
