:060000000A128A11902F84
:100F200083010A128A11C52FF501F601B52FF301CD
:100F3000F401A02F0130F3070318F40A0030F4077E
:100F40007408803AF2007608803A7202031DAA2FD4
:100F500075087302031CAD2FAE2F9A2FAF2F0130EF
:100F6000F5070318F60A0030F6077608803AF20013
:100F70007108803A7202031DBF2F70087502031CAE
:100F8000C22FC32F972FC42F080083160313870186
:100F90007E3083120313920087308316031392006E
:100FA00010308312031395003C3097006430F0003A
:100FB0000030F1000A128A1194270A128A1198301F
:100FC0008312031395003C3097006430F00000302A
:100FD000F1000A128A1194270A128A112030831212
:100FE000031395003C3097006430F0000030F100AE
:100FF0000A128A1194270A128A110A128A110028E9
:00000001FF
