:060000000A128A116B2FA9
:100EB6003F3406345B344F3466346D347D34073446
:100EC600FF34673477347C3439345E3479347134A2
:100ED60083133030FD000730FE005B30FF0020300A
:100EE60084000A128A1181270A128A1183010A12C2
:100EF6008A11C12F7E088A007F0882000A128A1191
:100F06007D270A128A118000840A04087D060319C7
:100F16000034FF0A0319FE0A812FF501F601B12FED
:100F2600F301F4019C2F0130F3070318F40A003093
:100F3600F4077408803AF2007608803A7202031DBC
:100F4600A62F75087302031CA92FAA2F962FAB2F65
:100F56000130F5070318F60A0030F6077608803ADE
:100F6600F2007108803A7202031DBB2F70087502E9
:100F7600031CBE2FBF2F932FC02F08008316031309
:100F860088018701F701F8017808803AFF00803070
:100F96007F02031DD02F10307702031CD32FD42FCE
:100FA600D62FC52FC52F7708203E8400831300084F
:100FB600831203138700E830F0000330F1000A12B1
:100FC6008A1190270A128A110130F7070318F80AC6
:100FD6000030F8077808803AFF0080307F02031D52
:100FE600F62F10307702031CF92FFA2FD62FC52FB4
:0A0FF600C52FC52F0A128A1100282A
:02400E007AFF37
:00000001FF
