:060000000A128A114D2FC7
:100E9A0083010A128A11822FF501F601722FF301DA
:100EAA00F4015D2F0130F3070318F40A0030F40748
:100EBA007408803AF2007608803A7202031D672F9E
:100ECA0075087302031C6A2F6B2F572F6C2F013082
:100EDA00F5070318F60A0030F6077608803AF2009A
:100EEA007108803A7202031D7C2F70087502031C78
:100EFA007F2F802F542F812F080083160313870119
:100F0A00862F0130831203138700E830F000033084
:100F1A00F1000A128A1151270A128A110330831228
:100F2A0003138700E830F0000330F1000A128A1137
:100F3A0051270A128A110230831203138700E830FC
:100F4A00F0000330F1000A128A1151270A128A119D
:100F5A000630831203138700E830F0000330F100F3
:100F6A000A128A1151270A128A11043083120313B2
:100F7A008700E830F0000330F1000A128A11512785
:100F8A000A128A110C30831203138700E830F0002A
:100F9A000330F1000A128A1151270A128A11083005
:100FAA00831203138700E830F0000330F1000A12BD
:100FBA008A1151270A128A110930831203138700F2
:100FCA00E830F0000330F1000A128A1151270A12A0
:100FDA008A110130831203138700E830F0000330CE
:100FEA00F1000A128A1151270A128A11862F862FB6
:060FFA000A128A11002812
:02400E007AFF37
:00000001FF
