:030000000209FBF7
:0C09FB00787FE4F6D8FD7581240208F630
:1009E3000E0D0B07E0D0B070077F6777666D7D7CD7
:0809F300065B4F395E3F79718C
:1009BD00E4FDFCC3ED9FEE6480F8EC648098501567
:1009CD00E4FBFA0BBB00010ABA04F8BBFBF50DBD45
:0509DD0000010C80DEAA
:0109E20022F2
:1008F60078087C007D007BFF7A0979E37E007F041F
:100906001208D0780C7C007D007BFF7A0979E77E9F
:10091600007F041208D075103FE4F511F512F513A7
:10092600F51478157C00FD7BFF7A0979EBFE7F10C4
:100936001208D075A00FE4F5B075A00FE4FFFE74A1
:10094600082FF8E6B5A0068E118F12800B0FBF0098
:10095600010EEF64044E70E77F647E001209BD75D8
:10096600A0F0E4FF740C2FF8E6B5A0068E138F14E2
:10097600800B0FBF00010EEF64044E70E77F647EAC
:10098600001209BDE51225E025E024152514F8E638
:10099600F5901209BDE51225E025E024152514F889
:1009A600E6B5100875B00F1209BD808DE4F5B07F6D
:0709B60064FE1209BD8082FE
:10080000E709F608DFFA8046E709F208DFFA803EDA
:1008100088828C83E709F0A3DFFA8032E309F608C7
:10082000DFFA8078E309F208DFFA807088828C832F
:10083000E309F0A3DFFA806489828A83E0A3F608E3
:10084000DFFA805889828A83E0A3F208DFFA804CBD
:1008500080D280FA80C680D4806980F28033801094
:1008600080A680EA809A80A880DA80E280CA8033FD
:1008700089828A83ECFAE493A3C8C582C8CCC58375
:10088000CCF0A3C8C582C8CCC583CCDFE9DEE78045
:100890000D89828A83E493A3F608DFF9ECFAA9F0C4
:1008A000EDFB2289828A83ECFAE0A3C8C582C8CC1A
:1008B000C583CCF0A3C8C582C8CCC583CCDFEADE33
:1008C000E880DB89828A83E493A3F208DFF980CC95
:1008D00088F0EF60010E4E60C388F0ED2402B4048E
:1008E0000050B9F582EB2402B4040050AF23234535
:0608F00082239008507302
:00000001FF
