:060000000A128A114D2FC7
:100E44007E088A007F0882000A128A1122270A1269
:100E54008A118000840A04087D0603190034FF0AFD
:100E64000319FE0A262F07347F3467347734663437
:100E74006D347D347C3406345B344F3439345E3421
:100E84003F3479347134E034D034B03470340E34B7
:100E94000D340B340734F001F101F201F301F401D4
:100EA400F501F601F701F801B801B90183133830EF
:100EB400FD000730FE003530FF00203084000A12A8
:100EC4008A1126270A128A1183010A128A116A2FAB
:100ED40083160313870188016F2F0F308312880054
:100EE400FC01FD017D08803AFF0080307F02031D74
:100EF4007D2F04307C02031C802F812F832FAA2F87
:100F0400AA2F7C08343E8400831300088312031341
:100F14000806031D8E2F8F2F962F7D08F701F707E4
:100F24007C08F601F607962F0130FC070318FD0A2A
:100F34000030FD077D08803AFF0080307F02031DEA
:100F4400A52F04307C02031CA82FA92F832FAA2FBE
:100F5400F030831203138800F401F5017508803A18
:100F6400FF0080307F02031DB92F04307402031C7C
:100F7400BC2FBD2FBF2FE62FE62F7408303E840010
:100F840083130008831203130806031DCA2FCB2FF3
:100F9400D22F7508F101F1077408F001F007D22F80
:100FA4000130F4070318F50A0030F5077508803A94
:100FB400FF0080307F02031DE12F04307402031C04
:100FC400E42FE52FBF2FE62F7608F9000230031037
:100FD400F90DFF3E031DE92F20307907FA00700850
:100FE4007A07FB007B088400831300088312031331
:0C0FF40087006F2F6F2F0A128A1100284F
:02400E007AFF37
:00000001FF
