:060000000A128A11682FAC
:100ED00083010A128A11AA2FF301F4019A2FF50156
:100EE000F6017608803AFF0080307F02031D7A2FDA
:100EF0000A307502031C7D2F7E2F802F942F942F94
:100F00000130F5070318F60A0030F6077608803A34
:100F1000FF0080307F02031D8F2F0A307502031CF3
:100F2000922F932F802F942F0130F3070318F40A88
:100F30000030F4077408803AF2007108803A7202B7
:100F4000031DA42F70087302031CA72FA82F6F2F57
:100F5000A92F0800831603138701AE2F0A308312CE
:100F6000031387006430F0000030F1000A128A1188
:100F70006C270A128A11831203138701E830F000EC
:100F80000330F1000A128A116C270A128A11053007
:100F9000831203138700E830F0000330F1000A12D7
:100FA0008A116C270A128A11FF30831203138700FB
:100FB000E830F0000330F1000A128A116C270A129F
:100FC0008A110630831203138700E830F0000330E3
:100FD000F1000A128A116C270A128A110930831251
:100FE00003138700E830F0000330F1000A128A1181
:100FF0006C270A128A11AE2FAE2F0A128A1100280E
:00000001FF
