:060000000A128A11AA2F6A
:100F540083010A128A11AE2F8316031385018312AB
:100F640003138501E830F0000330F1000A128A11FE
:100F7400CF270A128A11FF30831203138500E83049
:100F8400F0000330F1000A128A11CF270A128A11E5
:100F9400AE2FAE2F0A128A110028F501F601F02FA8
:100FA400F301F401DB2F0130F3070318F40A0030D6
:100FB400F4077408803AF2007608803A7202031D3E
:100FC400E52F75087302031CE82FE92FD52FEA2FAC
:100FD4000130F5070318F60A0030F6077108803A65
:100FE400F2007608803A7202031DFA2F7508700227
:0C0FF4000318FD2FFE2FD22FFF2F080046
:02400E007AFF37
:00000001FF
