:030000000208C231
:0C08C200787FE4F6D8FD75810A02087901
:1008B1004C495645574952450057454C434F4D45C4
:0108C1000036
:100879001208567BFF7A0879B17F387E0012082E5C
:0F0889007BFF7A0879BA7FC47E0012082E80E1C7
:100856007F387E001208CE7F0C7E001208CE7F06FF
:100866007E001208CE7F017E001208CE7F807E00B9
:030876000208CEA7
:0A08CE008FA0C290120800C292220F
:0A08D8008FA0D290120800C29222F5
:10082E008B088A09890A1208CEAB08AA09A90A12EE
:10083E0008986013050AE50A7002050914F91208F2
:08084E0098FF1208D880E22295
:08080000C291D2927F0A7E0032
:10080800E4FDFCD3ED9FEE6480F8EC64809850150D
:10081800E4FBFA0BBB00010ABA03F8BBE9F50DBD0E
:0508280000010C80DE60
:01082D0022A8
:10089800BB010689828A83E0225002E722BBFE025E
:0908A800E32289828A83E4932291
:00000001FF
