:03000000020A569B
:0C0A5600787FE4F6D8FD7581200209A32A
:070A620076616C75653A0036
:03000B00020A697D
:030A6900B297320F
:0409FA007F027E00FA
:1009FE00E4FDFCC3ED9FEC9E50070DBD00010C8085
:0F0A0E00F2E4FFFE0FBF00010EBE04F8BFFBF5C0
:010A1D0022B6
:100A32008FA0C2B0C2B1D2B67F0A7E001209FEC236
:020A4200B622DA
:100A44008FA0D2B6D2B0C2B17F0A7E001209FEC214
:020A5400B622C8
:0609CF008B1C8A1D891E2D
:1009D500E4F51FF520AB1CAA1DA91E852082851FE5
:1009E500831208F1FF600D120A440520E52070E529
:0409F500051F80E179
:0109F90022DB
:100A1E007F38120A327F0C120A327F06120A327F98
:040A2E0080020A3206
:10080000051BE51B7002051AE4F514F515F50AF54C
:100810000BAF80F5088F09AE08FC7D0A12091E8C0B
:100820000C8D0DAE08AF097C007D0A12091E8E08E2
:100830008F09E50D2430F50FE4350CF50EE509457B
:100840000860277C007D0A12091E8C0C8D0DAE08F5
:10085000AF097C007D0A12091E8E088F09E50D2460
:1008600030F511E4350CF510800675100075113067
:10087000750A00750B01E5094508602BAE08AF0944
:100880007C007D0A12091E8C0C8D0DAE08AF097C10
:10089000007D0A12091E8E088F09E50D2430F5131C
:1008A000E4350CF5128006751200751330751400CE
:1008B000751502E515640245147005AF13120A445C
:1008C000E50B6401450A7005AF11120A44AF0F121F
:1008D0000A44E51B6403451A7016F51AF51BF51258
:1008E000F513F510F511F50EF50F7F0AFE1209FE4E
:0108F00022E5
:10097300C296C295D2941209FAD2901209FAD29170
:100983007F017E001209FEC2912092FD3092FDD2BA
:10099300931208007F88120A321209FAC29380D098
:1009A300D292C290C293C291E4F51AF51B758902E3
:1009B300758CFD75A882D28C120A1E7BFF7A0A7988
:0C09C300621209CF7F88120A3202097309
:1008F100BB010CE58229F582E5833AF583E02250BC
:1009010006E92582F8E622BBFE06E92582F8E22205
:0D091100E58229F582E5833AF583E493221F
:10091E00BC000BBE0029EF8DF084FFADF022E4CCBD
:10092E00F875F008EF2FFFEE33FEEC33FCEE9DEC86
:10093E00984005FCEE9DFE0FD5F0E9E4CEFD22EDCC
:10094E00F8F5F0EE8420D21CFEADF075F008EF2F16
:10095E00FFED33FD4007985006D5F0F222C398FD07
:05096E000FD5F0EA22A4
:00000001FF
